{
  "contractName": "FileMetadata",
  "abi": [
    {
      "anonymous": false,
      "inputs": [
        {
          "indexed": false,
          "internalType": "string",
          "name": "clientId",
          "type": "string"
        },
        {
          "indexed": true,
          "internalType": "bytes32",
          "name": "fileIdentifier",
          "type": "bytes32"
        }
      ],
      "name": "FileAccessed",
      "type": "event"
    },
    {
      "anonymous": false,
      "inputs": [
        {
          "indexed": false,
          "internalType": "string",
          "name": "clientId",
          "type": "string"
        },
        {
          "indexed": true,
          "internalType": "bytes32",
          "name": "fileIdentifier",
          "type": "bytes32"
        }
      ],
      "name": "FileAdded",
      "type": "event"
    },
    {
      "inputs": [
        {
          "internalType": "string",
          "name": "clientId",
          "type": "string"
        },
        {
          "internalType": "bytes32",
          "name": "fileIdentifier",
          "type": "bytes32"
        },
        {
          "internalType": "bytes",
          "name": "encryptedMetadata",
          "type": "bytes"
        }
      ],
      "name": "addFile",
      "outputs": [],
      "stateMutability": "nonpayable",
      "type": "function"
    },
    {
      "inputs": [
        {
          "internalType": "string",
          "name": "clientId",
          "type": "string"
        },
        {
          "internalType": "bytes32",
          "name": "fileIdentifier",
          "type": "bytes32"
        }
      ],
      "name": "getFileData",
      "outputs": [
        {
          "internalType": "bytes",
          "name": "",
          "type": "bytes"
        }
      ],
      "stateMutability": "nonpayable",
      "type": "function"
    }
  ],
  "bytecode": "0x608060405234801561001057600080fd5b50610a65806100206000396000f3fe608060405234801561001057600080fd5b50600436106100365760003560e01c80639f672bf61461003b578063bf98cc8e14610057575b600080fd5b610055600480360381019061005091906105ba565b610087565b005b610071600480360381019061006c9190610566565b6101c2565b60405161007e91906107b3565b60405180910390f35b60008084604051610098919061079c565b9081526020016040518091039020600084815260200190815260200160002090508060010160009054906101000a900460ff161561010b576040517f08c379a000000000000000000000000000000000000000000000000000000000815260040161010290610837565b60405180910390fd5b818160000190805190602001906101239291906103de565b5060018160010160006101000a81548160ff021916908315150217905550338160010160016101000a81548173ffffffffffffffffffffffffffffffffffffffff021916908373ffffffffffffffffffffffffffffffffffffffff160217905550827fa08b0b82818030a4a6a733e84fdba1df437f7bc2f381d5d3365108eff0a6cf14856040516101b491906107d5565b60405180910390a250505050565b60608282600080836040516101d7919061079c565b9081526020016040518091039020600083815260200190815260200160002090508060010160009054906101000a900460ff16610249576040517f08c379a000000000000000000000000000000000000000000000000000000000815260040161024090610817565b60405180910390fd5b3373ffffffffffffffffffffffffffffffffffffffff168160010160019054906101000a900473ffffffffffffffffffffffffffffffffffffffff1673ffffffffffffffffffffffffffffffffffffffff16146102db576040517f08c379a00000000000000000000000000000000000000000000000000000000081526004016102d2906107f7565b60405180910390fd5b600080876040516102ec919061079c565b908152602001604051809103902060008781526020019081526020016000209050857f081fc613a90fb528d3c2d39f57ef2c7ffee513f095e9426361e655c3994ef94a8860405161033d91906107d5565b60405180910390a280600001805461035490610977565b80601f016020809104026020016040519081016040528092919081815260200182805461038090610977565b80156103cd5780601f106103a2576101008083540402835291602001916103cd565b820191906000526020600020905b8154815290600101906020018083116103b057829003601f168201915b505050505094505050505092915050565b8280546103ea90610977565b90600052602060002090601f01602090048101928261040c5760008555610453565b82601f1061042557805160ff1916838001178555610453565b82800160010185558215610453579182015b82811115610452578251825591602001919060010190610437565b5b5090506104609190610464565b5090565b5b8082111561047d576000816000905550600101610465565b5090565b600061049461048f84610888565b610857565b9050828152602081018484840111156104ac57600080fd5b6104b7848285610935565b509392505050565b60006104d26104cd846108b8565b610857565b9050828152602081018484840111156104ea57600080fd5b6104f5848285610935565b509392505050565b60008135905061050c81610a18565b92915050565b600082601f83011261052357600080fd5b8135610533848260208601610481565b91505092915050565b600082601f83011261054d57600080fd5b813561055d8482602086016104bf565b91505092915050565b6000806040838503121561057957600080fd5b600083013567ffffffffffffffff81111561059357600080fd5b61059f8582860161053c565b92505060206105b0858286016104fd565b9150509250929050565b6000806000606084860312156105cf57600080fd5b600084013567ffffffffffffffff8111156105e957600080fd5b6105f58682870161053c565b9350506020610606868287016104fd565b925050604084013567ffffffffffffffff81111561062357600080fd5b61062f86828701610512565b9150509250925092565b6000610644826108e8565b61064e81856108fe565b935061065e818560208601610944565b61066781610a07565b840191505092915050565b600061067d826108f3565b610687818561090f565b9350610697818560208601610944565b6106a081610a07565b840191505092915050565b60006106b6826108f3565b6106c08185610920565b93506106d0818560208601610944565b80840191505092915050565b60006106e9600d8361090f565b91507f4e6f7420746865206f776e6572000000000000000000000000000000000000006000830152602082019050919050565b600061072960138361090f565b91507f46696c6520646f6573206e6f74206578697374000000000000000000000000006000830152602082019050919050565b600061076960138361090f565b91507f46696c6520616c726561647920657869737473000000000000000000000000006000830152602082019050919050565b60006107a882846106ab565b915081905092915050565b600060208201905081810360008301526107cd8184610639565b905092915050565b600060208201905081810360008301526107ef8184610672565b905092915050565b60006020820190508181036000830152610810816106dc565b9050919050565b600060208201905081810360008301526108308161071c565b9050919050565b600060208201905081810360008301526108508161075c565b9050919050565b6000604051905081810181811067ffffffffffffffff8211171561087e5761087d6109d8565b5b8060405250919050565b600067ffffffffffffffff8211156108a3576108a26109d8565b5b601f19601f8301169050602081019050919050565b600067ffffffffffffffff8211156108d3576108d26109d8565b5b601f19601f8301169050602081019050919050565b600081519050919050565b600081519050919050565b600082825260208201905092915050565b600082825260208201905092915050565b600081905092915050565b6000819050919050565b82818337600083830152505050565b60005b83811015610962578082015181840152602081019050610947565b83811115610971576000848401525b50505050565b6000600282049050600182168061098f57607f821691505b602082108114156109a3576109a26109a9565b5b50919050565b7f4e487b7100000000000000000000000000000000000000000000000000000000600052602260045260246000fd5b7f4e487b7100000000000000000000000000000000000000000000000000000000600052604160045260246000fd5b6000601f19601f8301169050919050565b610a218161092b565b8114610a2c57600080fd5b5056fea264697066735822122094307fad5c24536754cd893a133801eeb906c8074d0c966f9b8304b39d73495e64736f6c63430008000033",
  "immutableReferences": {},
  "source": "// SPDX-License-Identifier: MIT\r\npragma solidity ^0.8.0;\r\n\r\ncontract FileMetadata {\r\n    struct FileData {\r\n        bytes encryptedMetadata;  // Encrypted metadata bundle\r\n        bool exists;\r\n        address owner;\r\n    }\r\n    \r\n    // clientID => (fileIdentifier => FileData)\r\n    mapping(string => mapping(bytes32 => FileData)) private clientFiles;\r\n    \r\n    event FileAdded(string clientId, bytes32 indexed fileIdentifier);\r\n    event FileAccessed(string clientId, bytes32 indexed fileIdentifier);\r\n\r\n    modifier onlyOwner(string memory clientId, bytes32 fileIdentifier) {\r\n        FileData storage fileData = clientFiles[clientId][fileIdentifier];\r\n        require(fileData.exists, \"File does not exist\");\r\n        require(fileData.owner == msg.sender, \"Not the owner\");\r\n        _;\r\n    }\r\n\r\n    function addFile(\r\n        string memory clientId,\r\n        bytes32 fileIdentifier,\r\n        bytes memory encryptedMetadata\r\n    ) public {\r\n        FileData storage fileData = clientFiles[clientId][fileIdentifier];\r\n        require(!fileData.exists, \"File already exists\");\r\n        \r\n        fileData.encryptedMetadata = encryptedMetadata;\r\n        fileData.exists = true;\r\n        fileData.owner = msg.sender;\r\n        \r\n        emit FileAdded(clientId, fileIdentifier);\r\n    }\r\n    \r\n    function getFileData(string memory clientId, bytes32 fileIdentifier) \r\n    public\r\n    onlyOwner(clientId, fileIdentifier)\r\n    returns (bytes memory) {\r\n        FileData storage fileData = clientFiles[clientId][fileIdentifier];\r\n        emit FileAccessed(clientId, fileIdentifier);\r\n        return fileData.encryptedMetadata;\r\n    }\r\n} ",
  "sourcePath": "C:\\Users\\Faizan\\Desktop\\Distributed Storage\\file-metadata\\contracts\\FileMetadata.sol",
  "compiler": {
    "name": "solc",
    "version": "0.8.0+commit.c7dfd78e.Emscripten.clang"
  },
  "schemaVersion": "3.4.16",
  "updatedAt": "2025-01-15T15:19:24.917Z",
  "networkType": "ethereum",
  "devdoc": {
    "kind": "dev",
    "methods": {},
    "version": 1
  },
  "userdoc": {
    "kind": "user",
    "methods": {},
    "version": 1
  }
}